{
  "contractName": "SolidarityEconomy",
  "abi": [
    {
      "inputs": [
        {
          "internalType": "address[]",
          "name": "_payees",
          "type": "address[]"
        },
        {
          "internalType": "uint256[]",
          "name": "_shares",
          "type": "uint256[]"
        },
        {
          "internalType": "string",
          "name": "_description",
          "type": "string"
        }
      ],
      "stateMutability": "payable",
      "type": "constructor",
      "payable": true
    },
    {
      "anonymous": false,
      "inputs": [
        {
          "indexed": true,
          "internalType": "contract IERC20",
          "name": "token",
          "type": "address"
        },
        {
          "indexed": false,
          "internalType": "address",
          "name": "to",
          "type": "address"
        },
        {
          "indexed": false,
          "internalType": "uint256",
          "name": "amount",
          "type": "uint256"
        }
      ],
      "name": "ERC20PaymentReleased",
      "type": "event"
    },
    {
      "anonymous": false,
      "inputs": [
        {
          "indexed": false,
          "internalType": "address",
          "name": "account",
          "type": "address"
        },
        {
          "indexed": false,
          "internalType": "uint256",
          "name": "shares",
          "type": "uint256"
        }
      ],
      "name": "PayeeAdded",
      "type": "event"
    },
    {
      "anonymous": false,
      "inputs": [
        {
          "indexed": false,
          "internalType": "address",
          "name": "from",
          "type": "address"
        },
        {
          "indexed": false,
          "internalType": "uint256",
          "name": "amount",
          "type": "uint256"
        }
      ],
      "name": "PaymentReceived",
      "type": "event"
    },
    {
      "anonymous": false,
      "inputs": [
        {
          "indexed": false,
          "internalType": "address",
          "name": "to",
          "type": "address"
        },
        {
          "indexed": false,
          "internalType": "uint256",
          "name": "amount",
          "type": "uint256"
        }
      ],
      "name": "PaymentReleased",
      "type": "event"
    },
    {
      "inputs": [
        {
          "internalType": "uint256",
          "name": "index",
          "type": "uint256"
        }
      ],
      "name": "payee",
      "outputs": [
        {
          "internalType": "address",
          "name": "",
          "type": "address"
        }
      ],
      "stateMutability": "view",
      "type": "function",
      "constant": true
    },
    {
      "inputs": [
        {
          "internalType": "address payable",
          "name": "account",
          "type": "address"
        }
      ],
      "name": "release",
      "outputs": [],
      "stateMutability": "nonpayable",
      "type": "function"
    },
    {
      "inputs": [
        {
          "internalType": "contract IERC20",
          "name": "token",
          "type": "address"
        },
        {
          "internalType": "address",
          "name": "account",
          "type": "address"
        }
      ],
      "name": "release",
      "outputs": [],
      "stateMutability": "nonpayable",
      "type": "function"
    },
    {
      "inputs": [
        {
          "internalType": "contract IERC20",
          "name": "token",
          "type": "address"
        },
        {
          "internalType": "address",
          "name": "account",
          "type": "address"
        }
      ],
      "name": "released",
      "outputs": [
        {
          "internalType": "uint256",
          "name": "",
          "type": "uint256"
        }
      ],
      "stateMutability": "view",
      "type": "function",
      "constant": true
    },
    {
      "inputs": [
        {
          "internalType": "address",
          "name": "account",
          "type": "address"
        }
      ],
      "name": "released",
      "outputs": [
        {
          "internalType": "uint256",
          "name": "",
          "type": "uint256"
        }
      ],
      "stateMutability": "view",
      "type": "function",
      "constant": true
    },
    {
      "inputs": [
        {
          "internalType": "address",
          "name": "account",
          "type": "address"
        }
      ],
      "name": "shares",
      "outputs": [
        {
          "internalType": "uint256",
          "name": "",
          "type": "uint256"
        }
      ],
      "stateMutability": "view",
      "type": "function",
      "constant": true
    },
    {
      "inputs": [
        {
          "internalType": "contract IERC20",
          "name": "token",
          "type": "address"
        }
      ],
      "name": "totalReleased",
      "outputs": [
        {
          "internalType": "uint256",
          "name": "",
          "type": "uint256"
        }
      ],
      "stateMutability": "view",
      "type": "function",
      "constant": true
    },
    {
      "inputs": [],
      "name": "totalReleased",
      "outputs": [
        {
          "internalType": "uint256",
          "name": "",
          "type": "uint256"
        }
      ],
      "stateMutability": "view",
      "type": "function",
      "constant": true
    },
    {
      "inputs": [],
      "name": "totalShares",
      "outputs": [
        {
          "internalType": "uint256",
          "name": "",
          "type": "uint256"
        }
      ],
      "stateMutability": "view",
      "type": "function",
      "constant": true
    },
    {
      "stateMutability": "payable",
      "type": "receive",
      "payable": true
    },
    {
      "inputs": [
        {
          "internalType": "address",
          "name": "account",
          "type": "address"
        }
      ],
      "name": "getAmountContributed",
      "outputs": [
        {
          "internalType": "uint256",
          "name": "",
          "type": "uint256"
        }
      ],
      "stateMutability": "view",
      "type": "function",
      "constant": true
    },
    {
      "inputs": [],
      "name": "getDescription",
      "outputs": [
        {
          "internalType": "string",
          "name": "",
          "type": "string"
        }
      ],
      "stateMutability": "view",
      "type": "function",
      "constant": true
    }
  ],
  "bytecode": "0x60806040526040516200260538038062002605833981810160405281019062000029919062000663565b8282805182511462000072576040517f08c379a0000000000000000000000000000000000000000000000000000000008152600401620000699062000931565b60405180910390fd5b6000825111620000b9576040517f08c379a0000000000000000000000000000000000000000000000000000000008152600401620000b09062000975565b60405180910390fd5b60005b825181101562000170576200015a83828151811062000104577f4e487b7100000000000000000000000000000000000000000000000000000000600052603260045260246000fd5b602002602001015183838151811062000146577f4e487b7100000000000000000000000000000000000000000000000000000000600052603260045260246000fd5b60200260200101516200019560201b60201c565b8080620001679062000b96565b915050620000bc565b50505080600890805190602001906200018b929190620003cf565b5050505062000ca5565b600073ffffffffffffffffffffffffffffffffffffffff168273ffffffffffffffffffffffffffffffffffffffff16141562000208576040517f08c379a0000000000000000000000000000000000000000000000000000000008152600401620001ff906200090f565b60405180910390fd5b600081116200024e576040517f08c379a0000000000000000000000000000000000000000000000000000000008152600401620002459062000997565b60405180910390fd5b6000600260008473ffffffffffffffffffffffffffffffffffffffff1673ffffffffffffffffffffffffffffffffffffffff1681526020019081526020016000205414620002d3576040517f08c379a0000000000000000000000000000000000000000000000000000000008152600401620002ca9062000953565b60405180910390fd5b6004829080600181540180825580915050600190039060005260206000200160009091909190916101000a81548173ffffffffffffffffffffffffffffffffffffffff021916908373ffffffffffffffffffffffffffffffffffffffff16021790555080600260008473ffffffffffffffffffffffffffffffffffffffff1673ffffffffffffffffffffffffffffffffffffffff16815260200190815260200160002081905550806000546200038a919062000a8f565b6000819055507f40c340f65e17194d14ddddb073d3c9f888e3cb52b5aae0c6c7706b4fbc905fac8282604051620003c3929190620008e2565b60405180910390a15050565b828054620003dd9062000b60565b90600052602060002090601f0160209004810192826200040157600085556200044d565b82601f106200041c57805160ff19168380011785556200044d565b828001600101855582156200044d579182015b828111156200044c5782518255916020019190600101906200042f565b5b5090506200045c919062000460565b5090565b5b808211156200047b57600081600090555060010162000461565b5090565b6000620004966200049084620009ed565b620009b9565b90508083825260208201905082856020860282011115620004b657600080fd5b60005b85811015620004ea5781620004cf8882620005ae565b845260208401935060208301925050600181019050620004b9565b5050509392505050565b60006200050b620005058462000a1c565b620009b9565b905080838252602082019050828560208602820111156200052b57600080fd5b60005b858110156200055f57816200054488826200064c565b8452602084019350602083019250506001810190506200052e565b5050509392505050565b6000620005806200057a8462000a4b565b620009b9565b9050828152602081018484840111156200059957600080fd5b620005a684828562000b2a565b509392505050565b600081519050620005bf8162000c71565b92915050565b600082601f830112620005d757600080fd5b8151620005e98482602086016200047f565b91505092915050565b600082601f8301126200060457600080fd5b815162000616848260208601620004f4565b91505092915050565b600082601f8301126200063157600080fd5b81516200064384826020860162000569565b91505092915050565b6000815190506200065d8162000c8b565b92915050565b6000806000606084860312156200067957600080fd5b600084015167ffffffffffffffff8111156200069457600080fd5b620006a286828701620005c5565b935050602084015167ffffffffffffffff811115620006c057600080fd5b620006ce86828701620005f2565b925050604084015167ffffffffffffffff811115620006ec57600080fd5b620006fa868287016200061f565b9150509250925092565b6200070f8162000aec565b82525050565b600062000724602c8362000a7e565b91507f5061796d656e7453706c69747465723a206163636f756e74206973207468652060008301527f7a65726f206164647265737300000000000000000000000000000000000000006020830152604082019050919050565b60006200078c60328362000a7e565b91507f5061796d656e7453706c69747465723a2070617965657320616e64207368617260008301527f6573206c656e677468206d69736d6174636800000000000000000000000000006020830152604082019050919050565b6000620007f4602b8362000a7e565b91507f5061796d656e7453706c69747465723a206163636f756e7420616c726561647960008301527f20686173207368617265730000000000000000000000000000000000000000006020830152604082019050919050565b60006200085c601a8362000a7e565b91507f5061796d656e7453706c69747465723a206e6f207061796565730000000000006000830152602082019050919050565b60006200089e601d8362000a7e565b91507f5061796d656e7453706c69747465723a207368617265732061726520300000006000830152602082019050919050565b620008dc8162000b20565b82525050565b6000604082019050620008f9600083018562000704565b620009086020830184620008d1565b9392505050565b600060208201905081810360008301526200092a8162000715565b9050919050565b600060208201905081810360008301526200094c816200077d565b9050919050565b600060208201905081810360008301526200096e81620007e5565b9050919050565b6000602082019050818103600083015262000990816200084d565b9050919050565b60006020820190508181036000830152620009b2816200088f565b9050919050565b6000604051905081810181811067ffffffffffffffff82111715620009e357620009e262000c42565b5b8060405250919050565b600067ffffffffffffffff82111562000a0b5762000a0a62000c42565b5b602082029050602081019050919050565b600067ffffffffffffffff82111562000a3a5762000a3962000c42565b5b602082029050602081019050919050565b600067ffffffffffffffff82111562000a695762000a6862000c42565b5b601f19601f8301169050602081019050919050565b600082825260208201905092915050565b600062000a9c8262000b20565b915062000aa98362000b20565b9250827fffffffffffffffffffffffffffffffffffffffffffffffffffffffffffffffff0382111562000ae15762000ae062000be4565b5b828201905092915050565b600062000af98262000b00565b9050919050565b600073ffffffffffffffffffffffffffffffffffffffff82169050919050565b6000819050919050565b60005b8381101562000b4a57808201518184015260208101905062000b2d565b8381111562000b5a576000848401525b50505050565b6000600282049050600182168062000b7957607f821691505b6020821081141562000b905762000b8f62000c13565b5b50919050565b600062000ba38262000b20565b91507fffffffffffffffffffffffffffffffffffffffffffffffffffffffffffffffff82141562000bd95762000bd862000be4565b5b600182019050919050565b7f4e487b7100000000000000000000000000000000000000000000000000000000600052601160045260246000fd5b7f4e487b7100000000000000000000000000000000000000000000000000000000600052602260045260246000fd5b7f4e487b7100000000000000000000000000000000000000000000000000000000600052604160045260246000fd5b62000c7c8162000aec565b811462000c8857600080fd5b50565b62000c968162000b20565b811462000ca257600080fd5b50565b6119508062000cb56000396000f3fe6080604052600436106100a05760003560e01c80638b83209b116100645780638b83209b146101e25780639852595c1461021f578063af5b0ece1461025c578063ce7c2ac214610299578063d79779b2146102d6578063e33b7de314610313576100f8565b806319165587146100fd5780631a092541146101265780633a98ef3914610151578063406072a91461017c57806348b75044146101b9576100f8565b366100f8576100b66100b061033e565b34610346565b7f6ef95f06320e7a25a04a175ca677b7052bdd97131872c2192525a629f51be7706100df61033e565b346040516100ee929190611475565b60405180910390a1005b600080fd5b34801561010957600080fd5b50610124600480360381019061011f9190610fcd565b6103a0565b005b34801561013257600080fd5b5061013b61054b565b604051610148919061149e565b60405180910390f35b34801561015d57600080fd5b506101666105dd565b60405161017391906115a0565b60405180910390f35b34801561018857600080fd5b506101a3600480360381019061019e9190611048565b6105e6565b6040516101b091906115a0565b60405180910390f35b3480156101c557600080fd5b506101e060048036038101906101db9190611048565b61066d565b005b3480156101ee57600080fd5b5061020960048036038101906102049190611084565b610935565b6040516102169190611431565b60405180910390f35b34801561022b57600080fd5b5061024660048036038101906102419190610fa4565b6109a3565b60405161025391906115a0565b60405180910390f35b34801561026857600080fd5b50610283600480360381019061027e9190610fa4565b6109ec565b60405161029091906115a0565b60405180910390f35b3480156102a557600080fd5b506102c060048036038101906102bb9190610fa4565b610a35565b6040516102cd91906115a0565b60405180910390f35b3480156102e257600080fd5b506102fd60048036038101906102f8919061101f565b610a7e565b60405161030a91906115a0565b60405180910390f35b34801561031f57600080fd5b50610328610ac7565b60405161033591906115a0565b60405180910390f35b600033905090565b80600760008473ffffffffffffffffffffffffffffffffffffffff1673ffffffffffffffffffffffffffffffffffffffff168152602001908152602001600020600082825461039591906115ed565b925050819055505050565b6000600260008373ffffffffffffffffffffffffffffffffffffffff1673ffffffffffffffffffffffffffffffffffffffff1681526020019081526020016000205411610422576040517f08c379a0000000000000000000000000000000000000000000000000000000008152600401610419906114c0565b60405180910390fd5b600061042c610ac7565b4761043791906115ed565b9050600061044e8383610449866109a3565b610ad1565b90506000811415610494576040517f08c379a000000000000000000000000000000000000000000000000000000000815260040161048b90611540565b60405180910390fd5b80600360008573ffffffffffffffffffffffffffffffffffffffff1673ffffffffffffffffffffffffffffffffffffffff16815260200190815260200160002060008282546104e391906115ed565b9250508190555080600160008282546104fc91906115ed565b9250508190555061050d8382610b3f565b7fdf20fd1e76bc69d672e4814fafb2c449bba3a5369d8359adf9e05e6fde87b056838260405161053e92919061144c565b60405180910390a1505050565b60606008805461055a906117d7565b80601f0160208091040260200160405190810160405280929190818152602001828054610586906117d7565b80156105d35780601f106105a8576101008083540402835291602001916105d3565b820191906000526020600020905b8154815290600101906020018083116105b657829003601f168201915b5050505050905090565b60008054905090565b6000600660008473ffffffffffffffffffffffffffffffffffffffff1673ffffffffffffffffffffffffffffffffffffffff16815260200190815260200160002060008373ffffffffffffffffffffffffffffffffffffffff1673ffffffffffffffffffffffffffffffffffffffff16815260200190815260200160002054905092915050565b6000600260008373ffffffffffffffffffffffffffffffffffffffff1673ffffffffffffffffffffffffffffffffffffffff16815260200190815260200160002054116106ef576040517f08c379a00000000000000000000000000000000000000000000000000000000081526004016106e6906114c0565b60405180910390fd5b60006106fa83610a7e565b8373ffffffffffffffffffffffffffffffffffffffff166370a08231306040518263ffffffff1660e01b81526004016107339190611431565b60206040518083038186803b15801561074b57600080fd5b505afa15801561075f573d6000803e3d6000fd5b505050506040513d601f19601f8201168201806040525081019061078391906110ad565b61078d91906115ed565b905060006107a583836107a087876105e6565b610ad1565b905060008114156107eb576040517f08c379a00000000000000000000000000000000000000000000000000000000081526004016107e290611540565b60405180910390fd5b80600660008673ffffffffffffffffffffffffffffffffffffffff1673ffffffffffffffffffffffffffffffffffffffff16815260200190815260200160002060008573ffffffffffffffffffffffffffffffffffffffff1673ffffffffffffffffffffffffffffffffffffffff168152602001908152602001600020600082825461087791906115ed565b9250508190555080600560008673ffffffffffffffffffffffffffffffffffffffff1673ffffffffffffffffffffffffffffffffffffffff16815260200190815260200160002060008282546108cd91906115ed565b925050819055506108df848483610c33565b8373ffffffffffffffffffffffffffffffffffffffff167f3be5b7a71e84ed12875d241991c70855ac5817d847039e17a9d895c1ceb0f18a8483604051610927929190611475565b60405180910390a250505050565b600060048281548110610971577f4e487b7100000000000000000000000000000000000000000000000000000000600052603260045260246000fd5b9060005260206000200160009054906101000a900473ffffffffffffffffffffffffffffffffffffffff169050919050565b6000600360008373ffffffffffffffffffffffffffffffffffffffff1673ffffffffffffffffffffffffffffffffffffffff168152602001908152602001600020549050919050565b6000600760008373ffffffffffffffffffffffffffffffffffffffff1673ffffffffffffffffffffffffffffffffffffffff168152602001908152602001600020549050919050565b6000600260008373ffffffffffffffffffffffffffffffffffffffff1673ffffffffffffffffffffffffffffffffffffffff168152602001908152602001600020549050919050565b6000600560008373ffffffffffffffffffffffffffffffffffffffff1673ffffffffffffffffffffffffffffffffffffffff168152602001908152602001600020549050919050565b6000600154905090565b600081600054600260008773ffffffffffffffffffffffffffffffffffffffff1673ffffffffffffffffffffffffffffffffffffffff1681526020019081526020016000205485610b229190611674565b610b2c9190611643565b610b3691906116ce565b90509392505050565b80471015610b82576040517f08c379a0000000000000000000000000000000000000000000000000000000008152600401610b7990611500565b60405180910390fd5b60008273ffffffffffffffffffffffffffffffffffffffff1682604051610ba89061141c565b60006040518083038185875af1925050503d8060008114610be5576040519150601f19603f3d011682016040523d82523d6000602084013e610bea565b606091505b5050905080610c2e576040517f08c379a0000000000000000000000000000000000000000000000000000000008152600401610c25906114e0565b60405180910390fd5b505050565b610cb48363a9059cbb60e01b8484604051602401610c52929190611475565b604051602081830303815290604052907bffffffffffffffffffffffffffffffffffffffffffffffffffffffff19166020820180517bffffffffffffffffffffffffffffffffffffffffffffffffffffffff8381831617835250505050610cb9565b505050565b6000610d1b826040518060400160405280602081526020017f5361666545524332303a206c6f772d6c6576656c2063616c6c206661696c65648152508573ffffffffffffffffffffffffffffffffffffffff16610d809092919063ffffffff16565b9050600081511115610d7b5780806020019051810190610d3b9190610ff6565b610d7a576040517f08c379a0000000000000000000000000000000000000000000000000000000008152600401610d7190611580565b60405180910390fd5b5b505050565b6060610d8f8484600085610d98565b90509392505050565b606082471015610ddd576040517f08c379a0000000000000000000000000000000000000000000000000000000008152600401610dd490611520565b60405180910390fd5b610de685610eac565b610e25576040517f08c379a0000000000000000000000000000000000000000000000000000000008152600401610e1c90611560565b60405180910390fd5b6000808673ffffffffffffffffffffffffffffffffffffffff168587604051610e4e9190611405565b60006040518083038185875af1925050503d8060008114610e8b576040519150601f19603f3d011682016040523d82523d6000602084013e610e90565b606091505b5091509150610ea0828286610ebf565b92505050949350505050565b600080823b905060008111915050919050565b60608315610ecf57829050610f1f565b600083511115610ee25782518084602001fd5b816040517f08c379a0000000000000000000000000000000000000000000000000000000008152600401610f16919061149e565b60405180910390fd5b9392505050565b600081359050610f35816118a7565b92915050565b600081359050610f4a816118be565b92915050565b600081519050610f5f816118d5565b92915050565b600081359050610f74816118ec565b92915050565b600081359050610f8981611903565b92915050565b600081519050610f9e81611903565b92915050565b600060208284031215610fb657600080fd5b6000610fc484828501610f26565b91505092915050565b600060208284031215610fdf57600080fd5b6000610fed84828501610f3b565b91505092915050565b60006020828403121561100857600080fd5b600061101684828501610f50565b91505092915050565b60006020828403121561103157600080fd5b600061103f84828501610f65565b91505092915050565b6000806040838503121561105b57600080fd5b600061106985828601610f65565b925050602061107a85828601610f26565b9150509250929050565b60006020828403121561109657600080fd5b60006110a484828501610f7a565b91505092915050565b6000602082840312156110bf57600080fd5b60006110cd84828501610f8f565b91505092915050565b6110df8161176e565b82525050565b6110ee81611702565b82525050565b60006110ff826115bb565b61110981856115d1565b93506111198185602086016117a4565b80840191505092915050565b6000611130826115c6565b61113a81856115dc565b935061114a8185602086016117a4565b61115381611896565b840191505092915050565b600061116b6026836115dc565b91507f5061796d656e7453706c69747465723a206163636f756e7420686173206e6f2060008301527f73686172657300000000000000000000000000000000000000000000000000006020830152604082019050919050565b60006111d1603a836115dc565b91507f416464726573733a20756e61626c6520746f2073656e642076616c75652c207260008301527f6563697069656e74206d617920686176652072657665727465640000000000006020830152604082019050919050565b6000611237601d836115dc565b91507f416464726573733a20696e73756666696369656e742062616c616e63650000006000830152602082019050919050565b60006112776026836115dc565b91507f416464726573733a20696e73756666696369656e742062616c616e636520666f60008301527f722063616c6c00000000000000000000000000000000000000000000000000006020830152604082019050919050565b60006112dd602b836115dc565b91507f5061796d656e7453706c69747465723a206163636f756e74206973206e6f742060008301527f647565207061796d656e740000000000000000000000000000000000000000006020830152604082019050919050565b60006113436000836115d1565b9150600082019050919050565b600061135d601d836115dc565b91507f416464726573733a2063616c6c20746f206e6f6e2d636f6e74726163740000006000830152602082019050919050565b600061139d602a836115dc565b91507f5361666545524332303a204552433230206f7065726174696f6e20646964206e60008301527f6f742073756363656564000000000000000000000000000000000000000000006020830152604082019050919050565b6113ff81611764565b82525050565b600061141182846110f4565b915081905092915050565b600061142782611336565b9150819050919050565b600060208201905061144660008301846110e5565b92915050565b600060408201905061146160008301856110d6565b61146e60208301846113f6565b9392505050565b600060408201905061148a60008301856110e5565b61149760208301846113f6565b9392505050565b600060208201905081810360008301526114b88184611125565b905092915050565b600060208201905081810360008301526114d98161115e565b9050919050565b600060208201905081810360008301526114f9816111c4565b9050919050565b600060208201905081810360008301526115198161122a565b9050919050565b600060208201905081810360008301526115398161126a565b9050919050565b60006020820190508181036000830152611559816112d0565b9050919050565b6000602082019050818103600083015261157981611350565b9050919050565b6000602082019050818103600083015261159981611390565b9050919050565b60006020820190506115b560008301846113f6565b92915050565b600081519050919050565b600081519050919050565b600081905092915050565b600082825260208201905092915050565b60006115f882611764565b915061160383611764565b9250827fffffffffffffffffffffffffffffffffffffffffffffffffffffffffffffffff0382111561163857611637611809565b5b828201905092915050565b600061164e82611764565b915061165983611764565b92508261166957611668611838565b5b828204905092915050565b600061167f82611764565b915061168a83611764565b9250817fffffffffffffffffffffffffffffffffffffffffffffffffffffffffffffffff04831182151516156116c3576116c2611809565b5b828202905092915050565b60006116d982611764565b91506116e483611764565b9250828210156116f7576116f6611809565b5b828203905092915050565b600061170d82611744565b9050919050565b600061171f82611744565b9050919050565b60008115159050919050565b600061173d82611702565b9050919050565b600073ffffffffffffffffffffffffffffffffffffffff82169050919050565b6000819050919050565b600061177982611780565b9050919050565b600061178b82611792565b9050919050565b600061179d82611744565b9050919050565b60005b838110156117c25780820151818401526020810190506117a7565b838111156117d1576000848401525b50505050565b600060028204905060018216806117ef57607f821691505b6020821081141561180357611802611867565b5b50919050565b7f4e487b7100000000000000000000000000000000000000000000000000000000600052601160045260246000fd5b7f4e487b7100000000000000000000000000000000000000000000000000000000600052601260045260246000fd5b7f4e487b7100000000000000000000000000000000000000000000000000000000600052602260045260246000fd5b6000601f19601f8301169050919050565b6118b081611702565b81146118bb57600080fd5b50565b6118c781611714565b81146118d257600080fd5b50565b6118de81611726565b81146118e957600080fd5b50565b6118f581611732565b811461190057600080fd5b50565b61190c81611764565b811461191757600080fd5b5056fea2646970667358221220c19648d1410b2c853d33587255b9c75f1b3507d7a957a46389c0f79e2ca65c7164736f6c63430008000033",
  "immutableReferences": {},
  "source": "// SPDX-License-Identifier: MIT\npragma solidity ^0.8.0;\n\nimport \"@openzeppelin/contracts/finance/PaymentSplitter.sol\";\n\ncontract SolidarityEconomy is PaymentSplitter {\n  mapping(address => uint256) private _contributors;\n    string private description;\n\n    constructor(address[] memory _payees, uint256[] memory _shares, string memory _description)\n    PaymentSplitter(_payees, _shares)\n    payable {\n      description = _description;\n  }\n\n  receive() external override payable {\n    addContributor(_msgSender(), msg.value);\n    emit PaymentReceived(_msgSender(), msg.value);\n  }\n\n  /**\n   * @dev Add a contributor's payment to their running total to track how much\n   * they have contributed to the contract.\n   */\n  function addContributor(address account, uint256 payment) internal {\n    _contributors[account] += payment;\n  }\n\n  /**\n   * @dev Getter for the amount an `account` has contributed to the contract\n   */\n  function getAmountContributed(address account) public view returns (uint256) {\n    return _contributors[account];\n  }\n\n  /**\n   * @dev Getter for the description set during contract creation\n   */\n  function getDescription() public view returns (string memory) {\n    return description;\n  }\n}\n",
  "sourcePath": "/Users/shen-shen/code/blockchain-developer-bootcamp-final-project/contracts/SolidarityEconomy.sol",
  "compiler": {
    "name": "solc",
    "version": "0.8.0+commit.c7dfd78e.Emscripten.clang"
  },
  "schemaVersion": "3.4.3",
  "updatedAt": "2022-01-04T02:48:05.644Z",
  "networkType": "ethereum",
  "devdoc": {
    "kind": "dev",
    "methods": {
      "getAmountContributed(address)": {
        "details": "Getter for the amount an `account` has contributed to the contract"
      },
      "getDescription()": {
        "details": "Getter for the description set during contract creation"
      },
      "payee(uint256)": {
        "details": "Getter for the address of the payee number `index`."
      },
      "release(address)": {
        "details": "Triggers a transfer to `account` of the amount of Ether they are owed, according to their percentage of the total shares and their previous withdrawals."
      },
      "release(address,address)": {
        "details": "Triggers a transfer to `account` of the amount of `token` tokens they are owed, according to their percentage of the total shares and their previous withdrawals. `token` must be the address of an IERC20 contract."
      },
      "released(address)": {
        "details": "Getter for the amount of Ether already released to a payee."
      },
      "released(address,address)": {
        "details": "Getter for the amount of `token` tokens already released to a payee. `token` should be the address of an IERC20 contract."
      },
      "shares(address)": {
        "details": "Getter for the amount of shares held by an account."
      },
      "totalReleased()": {
        "details": "Getter for the total amount of Ether already released."
      },
      "totalReleased(address)": {
        "details": "Getter for the total amount of `token` already released. `token` should be the address of an IERC20 contract."
      },
      "totalShares()": {
        "details": "Getter for the total shares held by payees."
      }
    },
    "version": 1
  },
  "userdoc": {
    "kind": "user",
    "methods": {},
    "version": 1
  }
}