{
  "contractName": "SolidarityEconomy",
  "abi": [
    {
      "inputs": [
        {
          "internalType": "address[]",
          "name": "_payees",
          "type": "address[]"
        },
        {
          "internalType": "uint256[]",
          "name": "_shares",
          "type": "uint256[]"
        },
        {
          "internalType": "string",
          "name": "_description",
          "type": "string"
        }
      ],
      "stateMutability": "payable",
      "type": "constructor",
      "payable": true
    },
    {
      "anonymous": false,
      "inputs": [
        {
          "indexed": true,
          "internalType": "contract IERC20",
          "name": "token",
          "type": "address"
        },
        {
          "indexed": false,
          "internalType": "address",
          "name": "to",
          "type": "address"
        },
        {
          "indexed": false,
          "internalType": "uint256",
          "name": "amount",
          "type": "uint256"
        }
      ],
      "name": "ERC20PaymentReleased",
      "type": "event"
    },
    {
      "anonymous": false,
      "inputs": [
        {
          "indexed": true,
          "internalType": "address",
          "name": "previousOwner",
          "type": "address"
        },
        {
          "indexed": true,
          "internalType": "address",
          "name": "newOwner",
          "type": "address"
        }
      ],
      "name": "OwnershipTransferred",
      "type": "event"
    },
    {
      "anonymous": false,
      "inputs": [
        {
          "indexed": false,
          "internalType": "address",
          "name": "account",
          "type": "address"
        },
        {
          "indexed": false,
          "internalType": "uint256",
          "name": "shares",
          "type": "uint256"
        }
      ],
      "name": "PayeeAdded",
      "type": "event"
    },
    {
      "anonymous": false,
      "inputs": [
        {
          "indexed": false,
          "internalType": "address",
          "name": "from",
          "type": "address"
        },
        {
          "indexed": false,
          "internalType": "uint256",
          "name": "amount",
          "type": "uint256"
        }
      ],
      "name": "PaymentReceived",
      "type": "event"
    },
    {
      "anonymous": false,
      "inputs": [
        {
          "indexed": false,
          "internalType": "address",
          "name": "to",
          "type": "address"
        },
        {
          "indexed": false,
          "internalType": "uint256",
          "name": "amount",
          "type": "uint256"
        }
      ],
      "name": "PaymentReleased",
      "type": "event"
    },
    {
      "inputs": [],
      "name": "owner",
      "outputs": [
        {
          "internalType": "address",
          "name": "",
          "type": "address"
        }
      ],
      "stateMutability": "view",
      "type": "function",
      "constant": true
    },
    {
      "inputs": [
        {
          "internalType": "uint256",
          "name": "index",
          "type": "uint256"
        }
      ],
      "name": "payee",
      "outputs": [
        {
          "internalType": "address",
          "name": "",
          "type": "address"
        }
      ],
      "stateMutability": "view",
      "type": "function",
      "constant": true
    },
    {
      "inputs": [
        {
          "internalType": "address payable",
          "name": "account",
          "type": "address"
        }
      ],
      "name": "release",
      "outputs": [],
      "stateMutability": "nonpayable",
      "type": "function"
    },
    {
      "inputs": [
        {
          "internalType": "contract IERC20",
          "name": "token",
          "type": "address"
        },
        {
          "internalType": "address",
          "name": "account",
          "type": "address"
        }
      ],
      "name": "release",
      "outputs": [],
      "stateMutability": "nonpayable",
      "type": "function"
    },
    {
      "inputs": [
        {
          "internalType": "contract IERC20",
          "name": "token",
          "type": "address"
        },
        {
          "internalType": "address",
          "name": "account",
          "type": "address"
        }
      ],
      "name": "released",
      "outputs": [
        {
          "internalType": "uint256",
          "name": "",
          "type": "uint256"
        }
      ],
      "stateMutability": "view",
      "type": "function",
      "constant": true
    },
    {
      "inputs": [
        {
          "internalType": "address",
          "name": "account",
          "type": "address"
        }
      ],
      "name": "released",
      "outputs": [
        {
          "internalType": "uint256",
          "name": "",
          "type": "uint256"
        }
      ],
      "stateMutability": "view",
      "type": "function",
      "constant": true
    },
    {
      "inputs": [],
      "name": "renounceOwnership",
      "outputs": [],
      "stateMutability": "nonpayable",
      "type": "function"
    },
    {
      "inputs": [
        {
          "internalType": "address",
          "name": "account",
          "type": "address"
        }
      ],
      "name": "shares",
      "outputs": [
        {
          "internalType": "uint256",
          "name": "",
          "type": "uint256"
        }
      ],
      "stateMutability": "view",
      "type": "function",
      "constant": true
    },
    {
      "inputs": [
        {
          "internalType": "contract IERC20",
          "name": "token",
          "type": "address"
        }
      ],
      "name": "totalReleased",
      "outputs": [
        {
          "internalType": "uint256",
          "name": "",
          "type": "uint256"
        }
      ],
      "stateMutability": "view",
      "type": "function",
      "constant": true
    },
    {
      "inputs": [],
      "name": "totalReleased",
      "outputs": [
        {
          "internalType": "uint256",
          "name": "",
          "type": "uint256"
        }
      ],
      "stateMutability": "view",
      "type": "function",
      "constant": true
    },
    {
      "inputs": [],
      "name": "totalShares",
      "outputs": [
        {
          "internalType": "uint256",
          "name": "",
          "type": "uint256"
        }
      ],
      "stateMutability": "view",
      "type": "function",
      "constant": true
    },
    {
      "inputs": [
        {
          "internalType": "address",
          "name": "newOwner",
          "type": "address"
        }
      ],
      "name": "transferOwnership",
      "outputs": [],
      "stateMutability": "nonpayable",
      "type": "function"
    },
    {
      "stateMutability": "payable",
      "type": "receive",
      "payable": true
    },
    {
      "inputs": [],
      "name": "makePayment",
      "outputs": [],
      "stateMutability": "payable",
      "type": "function",
      "payable": true
    },
    {
      "inputs": [
        {
          "internalType": "address",
          "name": "account",
          "type": "address"
        }
      ],
      "name": "getAccountContribution",
      "outputs": [
        {
          "internalType": "uint256",
          "name": "",
          "type": "uint256"
        }
      ],
      "stateMutability": "view",
      "type": "function",
      "constant": true
    },
    {
      "inputs": [],
      "name": "getContributorAddresses",
      "outputs": [
        {
          "internalType": "address[]",
          "name": "",
          "type": "address[]"
        }
      ],
      "stateMutability": "view",
      "type": "function",
      "constant": true
    },
    {
      "inputs": [],
      "name": "getDescription",
      "outputs": [
        {
          "internalType": "string",
          "name": "",
          "type": "string"
        }
      ],
      "stateMutability": "view",
      "type": "function",
      "constant": true
    },
    {
      "inputs": [
        {
          "internalType": "address payable",
          "name": "_to",
          "type": "address"
        }
      ],
      "name": "transferBalance",
      "outputs": [],
      "stateMutability": "nonpayable",
      "type": "function"
    },
    {
      "inputs": [
        {
          "internalType": "address[]",
          "name": "_contributors",
          "type": "address[]"
        },
        {
          "internalType": "uint256[]",
          "name": "_contributions",
          "type": "uint256[]"
        }
      ],
      "name": "migrateData",
      "outputs": [],
      "stateMutability": "nonpayable",
      "type": "function"
    }
  ],
  "bytecode": "0x6080604052604051620032d0380380620032d083398181016040528101906200002991906200074f565b82826200004b6200003f620001b560201b60201c565b620001bd60201b60201c565b805182511462000092576040517f08c379a0000000000000000000000000000000000000000000000000000000008152600401620000899062000a1d565b60405180910390fd5b6000825111620000d9576040517f08c379a0000000000000000000000000000000000000000000000000000000008152600401620000d09062000a61565b60405180910390fd5b60005b825181101562000190576200017a83828151811062000124577f4e487b7100000000000000000000000000000000000000000000000000000000600052603260045260246000fd5b602002602001015183838151811062000166577f4e487b7100000000000000000000000000000000000000000000000000000000600052603260045260246000fd5b60200260200101516200028160201b60201c565b8080620001879062000c82565b915050620000dc565b5050508060089080519060200190620001ab929190620004bb565b5050505062000d91565b600033905090565b60008060009054906101000a900473ffffffffffffffffffffffffffffffffffffffff169050816000806101000a81548173ffffffffffffffffffffffffffffffffffffffff021916908373ffffffffffffffffffffffffffffffffffffffff1602179055508173ffffffffffffffffffffffffffffffffffffffff168173ffffffffffffffffffffffffffffffffffffffff167f8be0079c531659141344cd1fd0a4f28419497f9722a3daafe3b4186f6b6457e060405160405180910390a35050565b600073ffffffffffffffffffffffffffffffffffffffff168273ffffffffffffffffffffffffffffffffffffffff161415620002f4576040517f08c379a0000000000000000000000000000000000000000000000000000000008152600401620002eb90620009fb565b60405180910390fd5b600081116200033a576040517f08c379a0000000000000000000000000000000000000000000000000000000008152600401620003319062000a83565b60405180910390fd5b6000600360008473ffffffffffffffffffffffffffffffffffffffff1673ffffffffffffffffffffffffffffffffffffffff1681526020019081526020016000205414620003bf576040517f08c379a0000000000000000000000000000000000000000000000000000000008152600401620003b69062000a3f565b60405180910390fd5b6005829080600181540180825580915050600190039060005260206000200160009091909190916101000a81548173ffffffffffffffffffffffffffffffffffffffff021916908373ffffffffffffffffffffffffffffffffffffffff16021790555080600360008473ffffffffffffffffffffffffffffffffffffffff1673ffffffffffffffffffffffffffffffffffffffff168152602001908152602001600020819055508060015462000476919062000b7b565b6001819055507f40c340f65e17194d14ddddb073d3c9f888e3cb52b5aae0c6c7706b4fbc905fac8282604051620004af929190620009ce565b60405180910390a15050565b828054620004c99062000c4c565b90600052602060002090601f016020900481019282620004ed576000855562000539565b82601f106200050857805160ff191683800117855562000539565b8280016001018555821562000539579182015b82811115620005385782518255916020019190600101906200051b565b5b5090506200054891906200054c565b5090565b5b80821115620005675760008160009055506001016200054d565b5090565b6000620005826200057c8462000ad9565b62000aa5565b90508083825260208201905082856020860282011115620005a257600080fd5b60005b85811015620005d65781620005bb88826200069a565b845260208401935060208301925050600181019050620005a5565b5050509392505050565b6000620005f7620005f18462000b08565b62000aa5565b905080838252602082019050828560208602820111156200061757600080fd5b60005b858110156200064b578162000630888262000738565b8452602084019350602083019250506001810190506200061a565b5050509392505050565b60006200066c620006668462000b37565b62000aa5565b9050828152602081018484840111156200068557600080fd5b6200069284828562000c16565b509392505050565b600081519050620006ab8162000d5d565b92915050565b600082601f830112620006c357600080fd5b8151620006d58482602086016200056b565b91505092915050565b600082601f830112620006f057600080fd5b815162000702848260208601620005e0565b91505092915050565b600082601f8301126200071d57600080fd5b81516200072f84826020860162000655565b91505092915050565b600081519050620007498162000d77565b92915050565b6000806000606084860312156200076557600080fd5b600084015167ffffffffffffffff8111156200078057600080fd5b6200078e86828701620006b1565b935050602084015167ffffffffffffffff811115620007ac57600080fd5b620007ba86828701620006de565b925050604084015167ffffffffffffffff811115620007d857600080fd5b620007e6868287016200070b565b9150509250925092565b620007fb8162000bd8565b82525050565b600062000810602c8362000b6a565b91507f5061796d656e7453706c69747465723a206163636f756e74206973207468652060008301527f7a65726f206164647265737300000000000000000000000000000000000000006020830152604082019050919050565b60006200087860328362000b6a565b91507f5061796d656e7453706c69747465723a2070617965657320616e64207368617260008301527f6573206c656e677468206d69736d6174636800000000000000000000000000006020830152604082019050919050565b6000620008e0602b8362000b6a565b91507f5061796d656e7453706c69747465723a206163636f756e7420616c726561647960008301527f20686173207368617265730000000000000000000000000000000000000000006020830152604082019050919050565b600062000948601a8362000b6a565b91507f5061796d656e7453706c69747465723a206e6f207061796565730000000000006000830152602082019050919050565b60006200098a601d8362000b6a565b91507f5061796d656e7453706c69747465723a207368617265732061726520300000006000830152602082019050919050565b620009c88162000c0c565b82525050565b6000604082019050620009e56000830185620007f0565b620009f46020830184620009bd565b9392505050565b6000602082019050818103600083015262000a168162000801565b9050919050565b6000602082019050818103600083015262000a388162000869565b9050919050565b6000602082019050818103600083015262000a5a81620008d1565b9050919050565b6000602082019050818103600083015262000a7c8162000939565b9050919050565b6000602082019050818103600083015262000a9e816200097b565b9050919050565b6000604051905081810181811067ffffffffffffffff8211171562000acf5762000ace62000d2e565b5b8060405250919050565b600067ffffffffffffffff82111562000af75762000af662000d2e565b5b602082029050602081019050919050565b600067ffffffffffffffff82111562000b265762000b2562000d2e565b5b602082029050602081019050919050565b600067ffffffffffffffff82111562000b555762000b5462000d2e565b5b601f19601f8301169050602081019050919050565b600082825260208201905092915050565b600062000b888262000c0c565b915062000b958362000c0c565b9250827fffffffffffffffffffffffffffffffffffffffffffffffffffffffffffffffff0382111562000bcd5762000bcc62000cd0565b5b828201905092915050565b600062000be58262000bec565b9050919050565b600073ffffffffffffffffffffffffffffffffffffffff82169050919050565b6000819050919050565b60005b8381101562000c3657808201518184015260208101905062000c19565b8381111562000c46576000848401525b50505050565b6000600282049050600182168062000c6557607f821691505b6020821081141562000c7c5762000c7b62000cff565b5b50919050565b600062000c8f8262000c0c565b91507fffffffffffffffffffffffffffffffffffffffffffffffffffffffffffffffff82141562000cc55762000cc462000cd0565b5b600182019050919050565b7f4e487b7100000000000000000000000000000000000000000000000000000000600052601160045260246000fd5b7f4e487b7100000000000000000000000000000000000000000000000000000000600052602260045260246000fd5b7f4e487b7100000000000000000000000000000000000000000000000000000000600052604160045260246000fd5b62000d688162000bd8565b811462000d7457600080fd5b50565b62000d828162000c0c565b811462000d8e57600080fd5b50565b61252f8062000da16000396000f3fe60806040526004361061010d5760003560e01c80638da5cb5b11610095578063d8d7970011610064578063d8d79700146103da578063dee87f26146103e4578063e33b7de31461040f578063f2fde38b1461043a578063f5e6a95a1461046357610154565b80638da5cb5b146102f85780639852595c14610323578063ce7c2ac214610360578063d79779b21461039d57610154565b80634670be50116100dc5780634670be501461021557806348b750441461025257806363b6b31f1461027b578063715018a6146102a45780638b83209b146102bb57610154565b806319165587146101595780631a092541146101825780633a98ef39146101ad578063406072a9146101d857610154565b36610154577f6ef95f06320e7a25a04a175ca677b7052bdd97131872c2192525a629f51be77061013b61048c565b3460405161014a929190611f30565b60405180910390a1005b600080fd5b34801561016557600080fd5b50610180600480360381019061017b9190611842565b610494565b005b34801561018e57600080fd5b5061019761063f565b6040516101a49190611f7b565b60405180910390f35b3480156101b957600080fd5b506101c26106d1565b6040516101cf91906120fd565b60405180910390f35b3480156101e457600080fd5b506101ff60048036038101906101fa9190611932565b6106db565b60405161020c91906120fd565b60405180910390f35b34801561022157600080fd5b5061023c60048036038101906102379190611819565b610762565b60405161024991906120fd565b60405180910390f35b34801561025e57600080fd5b5061027960048036038101906102749190611932565b6107ab565b005b34801561028757600080fd5b506102a2600480360381019061029d9190611842565b610a73565b005b3480156102b057600080fd5b506102b9610ba2565b005b3480156102c757600080fd5b506102e260048036038101906102dd919061196e565b610c2a565b6040516102ef9190611eec565b60405180910390f35b34801561030457600080fd5b5061030d610c98565b60405161031a9190611eec565b60405180910390f35b34801561032f57600080fd5b5061034a60048036038101906103459190611819565b610cc1565b60405161035791906120fd565b60405180910390f35b34801561036c57600080fd5b5061038760048036038101906103829190611819565b610d0a565b60405161039491906120fd565b60405180910390f35b3480156103a957600080fd5b506103c460048036038101906103bf9190611909565b610d53565b6040516103d191906120fd565b60405180910390f35b6103e2610d9c565b005b3480156103f057600080fd5b506103f9610dfc565b6040516104069190611f59565b60405180910390f35b34801561041b57600080fd5b50610424610e8a565b60405161043191906120fd565b60405180910390f35b34801561044657600080fd5b50610461600480360381019061045c9190611819565b610e94565b005b34801561046f57600080fd5b5061048a6004803603810190610485919061186b565b610f8c565b005b600033905090565b6000600360008373ffffffffffffffffffffffffffffffffffffffff1673ffffffffffffffffffffffffffffffffffffffff1681526020019081526020016000205411610516576040517f08c379a000000000000000000000000000000000000000000000000000000000815260040161050d90611fbd565b60405180910390fd5b6000610520610e8a565b4761052b9190612183565b90506000610542838361053d86610cc1565b611131565b90506000811415610588576040517f08c379a000000000000000000000000000000000000000000000000000000000815260040161057f9061207d565b60405180910390fd5b80600460008573ffffffffffffffffffffffffffffffffffffffff1673ffffffffffffffffffffffffffffffffffffffff16815260200190815260200160002060008282546105d79190612183565b9250508190555080600260008282546105f09190612183565b92505081905550610601838261119f565b7fdf20fd1e76bc69d672e4814fafb2c449bba3a5369d8359adf9e05e6fde87b0568382604051610632929190611f07565b60405180910390a1505050565b60606008805461064e9061236d565b80601f016020809104026020016040519081016040528092919081815260200182805461067a9061236d565b80156106c75780601f1061069c576101008083540402835291602001916106c7565b820191906000526020600020905b8154815290600101906020018083116106aa57829003601f168201915b5050505050905090565b6000600154905090565b6000600760008473ffffffffffffffffffffffffffffffffffffffff1673ffffffffffffffffffffffffffffffffffffffff16815260200190815260200160002060008373ffffffffffffffffffffffffffffffffffffffff1673ffffffffffffffffffffffffffffffffffffffff16815260200190815260200160002054905092915050565b6000600960008373ffffffffffffffffffffffffffffffffffffffff1673ffffffffffffffffffffffffffffffffffffffff168152602001908152602001600020549050919050565b6000600360008373ffffffffffffffffffffffffffffffffffffffff1673ffffffffffffffffffffffffffffffffffffffff168152602001908152602001600020541161082d576040517f08c379a000000000000000000000000000000000000000000000000000000000815260040161082490611fbd565b60405180910390fd5b600061083883610d53565b8373ffffffffffffffffffffffffffffffffffffffff166370a08231306040518263ffffffff1660e01b81526004016108719190611eec565b60206040518083038186803b15801561088957600080fd5b505afa15801561089d573d6000803e3d6000fd5b505050506040513d601f19601f820116820180604052508101906108c19190611997565b6108cb9190612183565b905060006108e383836108de87876106db565b611131565b90506000811415610929576040517f08c379a00000000000000000000000000000000000000000000000000000000081526004016109209061207d565b60405180910390fd5b80600760008673ffffffffffffffffffffffffffffffffffffffff1673ffffffffffffffffffffffffffffffffffffffff16815260200190815260200160002060008573ffffffffffffffffffffffffffffffffffffffff1673ffffffffffffffffffffffffffffffffffffffff16815260200190815260200160002060008282546109b59190612183565b9250508190555080600660008673ffffffffffffffffffffffffffffffffffffffff1673ffffffffffffffffffffffffffffffffffffffff1681526020019081526020016000206000828254610a0b9190612183565b92505081905550610a1d848483611293565b8373ffffffffffffffffffffffffffffffffffffffff167f3be5b7a71e84ed12875d241991c70855ac5817d847039e17a9d895c1ceb0f18a8483604051610a65929190611f30565b60405180910390a250505050565b610a7b61048c565b73ffffffffffffffffffffffffffffffffffffffff16610a99610c98565b73ffffffffffffffffffffffffffffffffffffffff1614610aef576040517f08c379a0000000000000000000000000000000000000000000000000000000008152600401610ae69061209d565b60405180910390fd5b6000808273ffffffffffffffffffffffffffffffffffffffff1647604051610b1690611ed7565b60006040518083038185875af1925050503d8060008114610b53576040519150601f19603f3d011682016040523d82523d6000602084013e610b58565b606091505b509150915081610b9d576040517f08c379a0000000000000000000000000000000000000000000000000000000008152600401610b9490611fdd565b60405180910390fd5b505050565b610baa61048c565b73ffffffffffffffffffffffffffffffffffffffff16610bc8610c98565b73ffffffffffffffffffffffffffffffffffffffff1614610c1e576040517f08c379a0000000000000000000000000000000000000000000000000000000008152600401610c159061209d565b60405180910390fd5b610c286000611319565b565b600060058281548110610c66577f4e487b7100000000000000000000000000000000000000000000000000000000600052603260045260246000fd5b9060005260206000200160009054906101000a900473ffffffffffffffffffffffffffffffffffffffff169050919050565b60008060009054906101000a900473ffffffffffffffffffffffffffffffffffffffff16905090565b6000600460008373ffffffffffffffffffffffffffffffffffffffff1673ffffffffffffffffffffffffffffffffffffffff168152602001908152602001600020549050919050565b6000600360008373ffffffffffffffffffffffffffffffffffffffff1673ffffffffffffffffffffffffffffffffffffffff168152602001908152602001600020549050919050565b6000600660008373ffffffffffffffffffffffffffffffffffffffff1673ffffffffffffffffffffffffffffffffffffffff168152602001908152602001600020549050919050565b60003411610da957600080fd5b610dba610db461048c565b346113dd565b7f6ef95f06320e7a25a04a175ca677b7052bdd97131872c2192525a629f51be770610de361048c565b34604051610df2929190611f30565b60405180910390a1565b6060600a805480602002602001604051908101604052809291908181526020018280548015610e8057602002820191906000526020600020905b8160009054906101000a900473ffffffffffffffffffffffffffffffffffffffff1673ffffffffffffffffffffffffffffffffffffffff1681526020019060010190808311610e36575b5050505050905090565b6000600254905090565b610e9c61048c565b73ffffffffffffffffffffffffffffffffffffffff16610eba610c98565b73ffffffffffffffffffffffffffffffffffffffff1614610f10576040517f08c379a0000000000000000000000000000000000000000000000000000000008152600401610f079061209d565b60405180910390fd5b600073ffffffffffffffffffffffffffffffffffffffff168173ffffffffffffffffffffffffffffffffffffffff161415610f80576040517f08c379a0000000000000000000000000000000000000000000000000000000008152600401610f7790611f9d565b60405180910390fd5b610f8981611319565b50565b610f9461048c565b73ffffffffffffffffffffffffffffffffffffffff16610fb2610c98565b73ffffffffffffffffffffffffffffffffffffffff1614611008576040517f08c379a0000000000000000000000000000000000000000000000000000000008152600401610fff9061209d565b60405180910390fd5b600b60009054906101000a900460ff1615611058576040517f08c379a000000000000000000000000000000000000000000000000000000000815260040161104f90611ffd565b60405180910390fd5b6001600b60006101000a81548160ff02191690831515021790555060005b8484905081101561112a576111178585838181106110bd577f4e487b7100000000000000000000000000000000000000000000000000000000600052603260045260246000fd5b90506020020160208101906110d29190611819565b84848481811061110b577f4e487b7100000000000000000000000000000000000000000000000000000000600052603260045260246000fd5b905060200201356113dd565b80806111229061239f565b915050611076565b5050505050565b600081600154600360008773ffffffffffffffffffffffffffffffffffffffff1673ffffffffffffffffffffffffffffffffffffffff1681526020019081526020016000205485611182919061220a565b61118c91906121d9565b6111969190612264565b90509392505050565b804710156111e2576040517f08c379a00000000000000000000000000000000000000000000000000000000081526004016111d99061203d565b60405180910390fd5b60008273ffffffffffffffffffffffffffffffffffffffff168260405161120890611ed7565b60006040518083038185875af1925050503d8060008114611245576040519150601f19603f3d011682016040523d82523d6000602084013e61124a565b606091505b505090508061128e576040517f08c379a00000000000000000000000000000000000000000000000000000000081526004016112859061201d565b60405180910390fd5b505050565b6113148363a9059cbb60e01b84846040516024016112b2929190611f30565b604051602081830303815290604052907bffffffffffffffffffffffffffffffffffffffffffffffffffffffff19166020820180517bffffffffffffffffffffffffffffffffffffffffffffffffffffffff838183161783525050505061149a565b505050565b60008060009054906101000a900473ffffffffffffffffffffffffffffffffffffffff169050816000806101000a81548173ffffffffffffffffffffffffffffffffffffffff021916908373ffffffffffffffffffffffffffffffffffffffff1602179055508173ffffffffffffffffffffffffffffffffffffffff168173ffffffffffffffffffffffffffffffffffffffff167f8be0079c531659141344cd1fd0a4f28419497f9722a3daafe3b4186f6b6457e060405160405180910390a35050565b600a829080600181540180825580915050600190039060005260206000200160009091909190916101000a81548173ffffffffffffffffffffffffffffffffffffffff021916908373ffffffffffffffffffffffffffffffffffffffff16021790555080600960008473ffffffffffffffffffffffffffffffffffffffff1673ffffffffffffffffffffffffffffffffffffffff168152602001908152602001600020600082825461148f9190612183565b925050819055505050565b60006114fc826040518060400160405280602081526020017f5361666545524332303a206c6f772d6c6576656c2063616c6c206661696c65648152508573ffffffffffffffffffffffffffffffffffffffff166115619092919063ffffffff16565b905060008151111561155c578080602001905181019061151c91906118e0565b61155b576040517f08c379a0000000000000000000000000000000000000000000000000000000008152600401611552906120dd565b60405180910390fd5b5b505050565b60606115708484600085611579565b90509392505050565b6060824710156115be576040517f08c379a00000000000000000000000000000000000000000000000000000000081526004016115b59061205d565b60405180910390fd5b6115c78561168d565b611606576040517f08c379a00000000000000000000000000000000000000000000000000000000081526004016115fd906120bd565b60405180910390fd5b6000808673ffffffffffffffffffffffffffffffffffffffff16858760405161162f9190611ec0565b60006040518083038185875af1925050503d806000811461166c576040519150601f19603f3d011682016040523d82523d6000602084013e611671565b606091505b50915091506116818282866116a0565b92505050949350505050565b600080823b905060008111915050919050565b606083156116b057829050611700565b6000835111156116c35782518084602001fd5b816040517f08c379a00000000000000000000000000000000000000000000000000000000081526004016116f79190611f7b565b60405180910390fd5b9392505050565b60008135905061171681612486565b92915050565b60008135905061172b8161249d565b92915050565b60008083601f84011261174357600080fd5b8235905067ffffffffffffffff81111561175c57600080fd5b60208301915083602082028301111561177457600080fd5b9250929050565b60008083601f84011261178d57600080fd5b8235905067ffffffffffffffff8111156117a657600080fd5b6020830191508360208202830111156117be57600080fd5b9250929050565b6000815190506117d4816124b4565b92915050565b6000813590506117e9816124cb565b92915050565b6000813590506117fe816124e2565b92915050565b600081519050611813816124e2565b92915050565b60006020828403121561182b57600080fd5b600061183984828501611707565b91505092915050565b60006020828403121561185457600080fd5b60006118628482850161171c565b91505092915050565b6000806000806040858703121561188157600080fd5b600085013567ffffffffffffffff81111561189b57600080fd5b6118a787828801611731565b9450945050602085013567ffffffffffffffff8111156118c657600080fd5b6118d28782880161177b565b925092505092959194509250565b6000602082840312156118f257600080fd5b6000611900848285016117c5565b91505092915050565b60006020828403121561191b57600080fd5b6000611929848285016117da565b91505092915050565b6000806040838503121561194557600080fd5b6000611953858286016117da565b925050602061196485828601611707565b9150509250929050565b60006020828403121561198057600080fd5b600061198e848285016117ef565b91505092915050565b6000602082840312156119a957600080fd5b60006119b784828501611804565b91505092915050565b60006119cc83836119e7565b60208301905092915050565b6119e181612304565b82525050565b6119f081612298565b82525050565b6119ff81612298565b82525050565b6000611a1082612128565b611a1a8185612156565b9350611a2583612118565b8060005b83811015611a56578151611a3d88826119c0565b9750611a4883612149565b925050600181019050611a29565b5085935050505092915050565b6000611a6e82612133565b611a788185612167565b9350611a8881856020860161233a565b80840191505092915050565b6000611a9f8261213e565b611aa98185612172565b9350611ab981856020860161233a565b611ac281612475565b840191505092915050565b6000611ada602683612172565b91507f4f776e61626c653a206e6577206f776e657220697320746865207a65726f206160008301527f64647265737300000000000000000000000000000000000000000000000000006020830152604082019050919050565b6000611b40602683612172565b91507f5061796d656e7453706c69747465723a206163636f756e7420686173206e6f2060008301527f73686172657300000000000000000000000000000000000000000000000000006020830152604082019050919050565b6000611ba6601483612172565b91507f4661696c656420746f2073656e642045746865720000000000000000000000006000830152602082019050919050565b6000611be6602283612172565b91507f436f6e74726163742068617320616c7265616479206265656e206d696772617460008301527f65640000000000000000000000000000000000000000000000000000000000006020830152604082019050919050565b6000611c4c603a83612172565b91507f416464726573733a20756e61626c6520746f2073656e642076616c75652c207260008301527f6563697069656e74206d617920686176652072657665727465640000000000006020830152604082019050919050565b6000611cb2601d83612172565b91507f416464726573733a20696e73756666696369656e742062616c616e63650000006000830152602082019050919050565b6000611cf2602683612172565b91507f416464726573733a20696e73756666696369656e742062616c616e636520666f60008301527f722063616c6c00000000000000000000000000000000000000000000000000006020830152604082019050919050565b6000611d58602b83612172565b91507f5061796d656e7453706c69747465723a206163636f756e74206973206e6f742060008301527f647565207061796d656e740000000000000000000000000000000000000000006020830152604082019050919050565b6000611dbe602083612172565b91507f4f776e61626c653a2063616c6c6572206973206e6f7420746865206f776e65726000830152602082019050919050565b6000611dfe600083612167565b9150600082019050919050565b6000611e18601d83612172565b91507f416464726573733a2063616c6c20746f206e6f6e2d636f6e74726163740000006000830152602082019050919050565b6000611e58602a83612172565b91507f5361666545524332303a204552433230206f7065726174696f6e20646964206e60008301527f6f742073756363656564000000000000000000000000000000000000000000006020830152604082019050919050565b611eba816122fa565b82525050565b6000611ecc8284611a63565b915081905092915050565b6000611ee282611df1565b9150819050919050565b6000602082019050611f0160008301846119f6565b92915050565b6000604082019050611f1c60008301856119d8565b611f296020830184611eb1565b9392505050565b6000604082019050611f4560008301856119f6565b611f526020830184611eb1565b9392505050565b60006020820190508181036000830152611f738184611a05565b905092915050565b60006020820190508181036000830152611f958184611a94565b905092915050565b60006020820190508181036000830152611fb681611acd565b9050919050565b60006020820190508181036000830152611fd681611b33565b9050919050565b60006020820190508181036000830152611ff681611b99565b9050919050565b6000602082019050818103600083015261201681611bd9565b9050919050565b6000602082019050818103600083015261203681611c3f565b9050919050565b6000602082019050818103600083015261205681611ca5565b9050919050565b6000602082019050818103600083015261207681611ce5565b9050919050565b6000602082019050818103600083015261209681611d4b565b9050919050565b600060208201905081810360008301526120b681611db1565b9050919050565b600060208201905081810360008301526120d681611e0b565b9050919050565b600060208201905081810360008301526120f681611e4b565b9050919050565b60006020820190506121126000830184611eb1565b92915050565b6000819050602082019050919050565b600081519050919050565b600081519050919050565b600081519050919050565b6000602082019050919050565b600082825260208201905092915050565b600081905092915050565b600082825260208201905092915050565b600061218e826122fa565b9150612199836122fa565b9250827fffffffffffffffffffffffffffffffffffffffffffffffffffffffffffffffff038211156121ce576121cd6123e8565b5b828201905092915050565b60006121e4826122fa565b91506121ef836122fa565b9250826121ff576121fe612417565b5b828204905092915050565b6000612215826122fa565b9150612220836122fa565b9250817fffffffffffffffffffffffffffffffffffffffffffffffffffffffffffffffff0483118215151615612259576122586123e8565b5b828202905092915050565b600061226f826122fa565b915061227a836122fa565b92508282101561228d5761228c6123e8565b5b828203905092915050565b60006122a3826122da565b9050919050565b60006122b5826122da565b9050919050565b60008115159050919050565b60006122d382612298565b9050919050565b600073ffffffffffffffffffffffffffffffffffffffff82169050919050565b6000819050919050565b600061230f82612316565b9050919050565b600061232182612328565b9050919050565b6000612333826122da565b9050919050565b60005b8381101561235857808201518184015260208101905061233d565b83811115612367576000848401525b50505050565b6000600282049050600182168061238557607f821691505b6020821081141561239957612398612446565b5b50919050565b60006123aa826122fa565b91507fffffffffffffffffffffffffffffffffffffffffffffffffffffffffffffffff8214156123dd576123dc6123e8565b5b600182019050919050565b7f4e487b7100000000000000000000000000000000000000000000000000000000600052601160045260246000fd5b7f4e487b7100000000000000000000000000000000000000000000000000000000600052601260045260246000fd5b7f4e487b7100000000000000000000000000000000000000000000000000000000600052602260045260246000fd5b6000601f19601f8301169050919050565b61248f81612298565b811461249a57600080fd5b50565b6124a6816122aa565b81146124b157600080fd5b50565b6124bd816122bc565b81146124c857600080fd5b50565b6124d4816122c8565b81146124df57600080fd5b50565b6124eb816122fa565b81146124f657600080fd5b5056fea26469706673582212203e70dacc1a981cf260be6d90a5445e742202ad8393bd712b9b89ebd9b836270664736f6c63430008000033",
  "immutableReferences": {},
  "source": "// SPDX-License-Identifier: MIT\npragma solidity 0.8.0;\n\nimport \"@openzeppelin/contracts/access/Ownable.sol\";\nimport \"@openzeppelin/contracts/finance/PaymentSplitter.sol\";\n\n/**\n  @title A contract to support the solidarity economy\n  @author Shen-Shen Wu\n  @notice You can use this contract to receive payments, divide those payments among recipients, and track contributors and their contributions\n */\ncontract SolidarityEconomy is Ownable, PaymentSplitter {\n  /// @dev Description populated during contract creation\n  string private description;\n\n  /// @dev Mapping of contributing addresses and the amount they have contributed\n  mapping(address => uint256) private contributions;\n\n  /// @dev Array of contributing addresses used when migrating from one version of this contract to another\n  address[] private contributors;\n\n  /// @dev Boolean to indicate whether the contract has been migrated\n  bool private migrated;\n\n  constructor(address[] memory _payees, uint256[] memory _shares, string memory _description)\n    PaymentSplitter(_payees, _shares)\n    payable {\n      description = _description;\n  }\n\n  /**\n   @notice Make a payment to the contract, track the contribution, and emit the PaymentReceived event\n   */\n  function makePayment() payable public {\n    require(msg.value > 0);\n    addContributor(_msgSender(), msg.value);\n    emit PaymentReceived(_msgSender(), msg.value);\n  }\n\n  /**\n   @dev Add a contributor to the contributors array and add the payment to their running total of contributions\n   @param account The contributor account addres\n   @param payment The amount contributed\n   */\n  function addContributor(address account, uint256 payment) internal {\n    contributors.push(account);\n    contributions[account] += payment;\n  }\n\n  /**\n   @notice Getter for the amount an `account` has contributed to the contract\n   @param account The address for which contributions are being requested\n   @return Total amount contributed by the requested account\n   */\n  function getAccountContribution(address account) public view returns (uint256) {\n    return contributions[account];\n  }\n\n  /**\n   @notice Getter for the list of accounts that have contributed to the contract\n   @return An array of addresses that have contributed to the contract\n   */\n  function getContributorAddresses() public view returns (address[] memory) {\n    return contributors;\n  }\n\n  /**\n   @notice Getter for the description set during contract creation\n   @return String representating contract description\n   */\n  function getDescription() public view returns (string memory) {\n    return description;\n  }\n\n  /**\n   @notice Owner-only function used when migrating from one version of the contract to the next, it transfers the balance\n   @param _to Address of the new contract version\n   */\n  function transferBalance(address payable _to) public onlyOwner {\n    (bool sent, bytes memory data) = _to.call{value: address(this).balance }(\"\");\n    require(sent, \"Failed to send Ether\");\n  }\n\n  /**\n   @notice Owner-only function used when migrating from one version of the contract to the next, it migrates the contributors and contribution history \n   @param _contributors Array of contributors from previous version of contract\n   @param _contributions Array of contributions from previous version of contract\n   */\n  function migrateData(address[] calldata _contributors, uint256[] calldata _contributions) public onlyOwner {\n    require(!migrated, \"Contract has already been migrated\");\n    migrated = true;\n    for (uint i=0; i<_contributors.length; i++) {\n      addContributor(_contributors[i], _contributions[i]);\n    }\n  }\n}\n",
  "sourcePath": "/Users/shen-shen/code/blockchain-developer-bootcamp-final-project/contracts/SolidarityEconomy.sol",
  "compiler": {
    "name": "solc",
    "version": "0.8.0+commit.c7dfd78e.Emscripten.clang"
  },
  "schemaVersion": "3.4.3",
  "updatedAt": "2022-01-07T05:02:59.514Z",
  "networkType": "ethereum",
  "devdoc": {
    "author": "Shen-Shen Wu",
    "kind": "dev",
    "methods": {
      "getAccountContribution(address)": {
        "params": {
          "account": "The address for which contributions are being requested"
        },
        "returns": {
          "_0": "Total amount contributed by the requested account"
        }
      },
      "getContributorAddresses()": {
        "returns": {
          "_0": "An array of addresses that have contributed to the contract"
        }
      },
      "getDescription()": {
        "returns": {
          "_0": "String representating contract description"
        }
      },
      "migrateData(address[],uint256[])": {
        "params": {
          "_contributions": "Array of contributions from previous version of contract",
          "_contributors": "Array of contributors from previous version of contract"
        }
      },
      "owner()": {
        "details": "Returns the address of the current owner."
      },
      "payee(uint256)": {
        "details": "Getter for the address of the payee number `index`."
      },
      "release(address)": {
        "details": "Triggers a transfer to `account` of the amount of Ether they are owed, according to their percentage of the total shares and their previous withdrawals."
      },
      "release(address,address)": {
        "details": "Triggers a transfer to `account` of the amount of `token` tokens they are owed, according to their percentage of the total shares and their previous withdrawals. `token` must be the address of an IERC20 contract."
      },
      "released(address)": {
        "details": "Getter for the amount of Ether already released to a payee."
      },
      "released(address,address)": {
        "details": "Getter for the amount of `token` tokens already released to a payee. `token` should be the address of an IERC20 contract."
      },
      "renounceOwnership()": {
        "details": "Leaves the contract without owner. It will not be possible to call `onlyOwner` functions anymore. Can only be called by the current owner. NOTE: Renouncing ownership will leave the contract without an owner, thereby removing any functionality that is only available to the owner."
      },
      "shares(address)": {
        "details": "Getter for the amount of shares held by an account."
      },
      "totalReleased()": {
        "details": "Getter for the total amount of Ether already released."
      },
      "totalReleased(address)": {
        "details": "Getter for the total amount of `token` already released. `token` should be the address of an IERC20 contract."
      },
      "totalShares()": {
        "details": "Getter for the total shares held by payees."
      },
      "transferBalance(address)": {
        "params": {
          "_to": "Address of the new contract version"
        }
      },
      "transferOwnership(address)": {
        "details": "Transfers ownership of the contract to a new account (`newOwner`). Can only be called by the current owner."
      }
    },
    "stateVariables": {
      "contributions": {
        "details": "Mapping of contributing addresses and the amount they have contributed"
      },
      "contributors": {
        "details": "Array of contributing addresses used when migrating from one version of this contract to another"
      },
      "description": {
        "details": "Description populated during contract creation"
      },
      "migrated": {
        "details": "Boolean to indicate whether the contract has been migrated"
      }
    },
    "title": "A contract to support the solidarity economy",
    "version": 1
  },
  "userdoc": {
    "kind": "user",
    "methods": {
      "getAccountContribution(address)": {
        "notice": "Getter for the amount an `account` has contributed to the contract"
      },
      "getContributorAddresses()": {
        "notice": "Getter for the list of accounts that have contributed to the contract"
      },
      "getDescription()": {
        "notice": "Getter for the description set during contract creation"
      },
      "makePayment()": {
        "notice": "Make a payment to the contract, track the contribution, and emit the PaymentReceived event"
      },
      "migrateData(address[],uint256[])": {
        "notice": "Owner-only function used when migrating from one version of the contract to the next, it migrates the contributors and contribution history "
      },
      "transferBalance(address)": {
        "notice": "Owner-only function used when migrating from one version of the contract to the next, it transfers the balance"
      }
    },
    "notice": "You can use this contract to receive payments, divide those payments among recipients, and track contributors and their contributions",
    "version": 1
  }
}